{
  "contractName": "CharityChallenge",
  "abi": [
    {
      "constant": true,
      "inputs": [],
      "name": "hasChallengeAccomplished",
      "outputs": [
        {
          "name": "",
          "type": "bool"
        }
      ],
      "payable": false,
      "stateMutability": "view",
      "type": "function"
    },
    {
      "constant": true,
      "inputs": [],
      "name": "challengeName",
      "outputs": [
        {
          "name": "",
          "type": "string"
        }
      ],
      "payable": false,
      "stateMutability": "view",
      "type": "function"
    },
    {
      "constant": true,
      "inputs": [
        {
          "name": "",
          "type": "address"
        }
      ],
      "name": "donorBalances",
      "outputs": [
        {
          "name": "",
          "type": "uint256"
        }
      ],
      "payable": false,
      "stateMutability": "view",
      "type": "function"
    },
    {
      "constant": true,
      "inputs": [],
      "name": "challengeSafetyHatchTime1",
      "outputs": [
        {
          "name": "",
          "type": "uint256"
        }
      ],
      "payable": false,
      "stateMutability": "view",
      "type": "function"
    },
    {
      "constant": true,
      "inputs": [],
      "name": "marketAddress",
      "outputs": [
        {
          "name": "",
          "type": "address"
        }
      ],
      "payable": false,
      "stateMutability": "view",
      "type": "function"
    },
    {
      "constant": true,
      "inputs": [],
      "name": "challengeEndTime",
      "outputs": [
        {
          "name": "",
          "type": "uint256"
        }
      ],
      "payable": false,
      "stateMutability": "view",
      "type": "function"
    },
    {
      "constant": true,
      "inputs": [],
      "name": "npoAddress",
      "outputs": [
        {
          "name": "",
          "type": "address"
        }
      ],
      "payable": false,
      "stateMutability": "view",
      "type": "function"
    },
    {
      "constant": true,
      "inputs": [],
      "name": "contractOwner",
      "outputs": [
        {
          "name": "",
          "type": "address"
        }
      ],
      "payable": false,
      "stateMutability": "view",
      "type": "function"
    },
    {
      "constant": true,
      "inputs": [],
      "name": "challengeSafetyHatchTime2",
      "outputs": [
        {
          "name": "",
          "type": "uint256"
        }
      ],
      "payable": false,
      "stateMutability": "view",
      "type": "function"
    },
    {
      "constant": true,
      "inputs": [],
      "name": "isEventFinalizedAndValid",
      "outputs": [
        {
          "name": "",
          "type": "bool"
        }
      ],
      "payable": false,
      "stateMutability": "view",
      "type": "function"
    },
    {
      "inputs": [
        {
          "name": "_contractOwner",
          "type": "address"
        },
        {
          "name": "_npoAddress",
          "type": "address"
        },
        {
          "name": "_marketAddress",
          "type": "address"
        },
        {
          "name": "_challengeName",
          "type": "string"
        },
        {
          "name": "_challengeEndTime",
          "type": "uint256"
        }
      ],
      "payable": false,
      "stateMutability": "nonpayable",
      "type": "constructor"
    },
    {
      "payable": true,
      "stateMutability": "payable",
      "type": "fallback"
    },
    {
      "anonymous": false,
      "inputs": [
        {
          "indexed": true,
          "name": "sender",
          "type": "address"
        },
        {
          "indexed": false,
          "name": "value",
          "type": "uint256"
        }
      ],
      "name": "Received",
      "type": "event"
    },
    {
      "anonymous": false,
      "inputs": [
        {
          "indexed": true,
          "name": "npo",
          "type": "address"
        },
        {
          "indexed": false,
          "name": "value",
          "type": "uint256"
        }
      ],
      "name": "Donated",
      "type": "event"
    },
    {
      "anonymous": false,
      "inputs": [
        {
          "indexed": true,
          "name": "claimer",
          "type": "address"
        },
        {
          "indexed": false,
          "name": "value",
          "type": "uint256"
        }
      ],
      "name": "Claimed",
      "type": "event"
    },
    {
      "anonymous": false,
      "inputs": [
        {
          "indexed": true,
          "name": "claimer",
          "type": "address"
        },
        {
          "indexed": false,
          "name": "value",
          "type": "uint256"
        }
      ],
      "name": "SafetyHatchClaimed",
      "type": "event"
    },
    {
      "constant": true,
      "inputs": [
        {
          "name": "_donorAddress",
          "type": "address"
        }
      ],
      "name": "balanceOf",
      "outputs": [
        {
          "name": "",
          "type": "uint256"
        }
      ],
      "payable": false,
      "stateMutability": "view",
      "type": "function"
    },
    {
      "constant": false,
      "inputs": [],
      "name": "finalize",
      "outputs": [],
      "payable": false,
      "stateMutability": "nonpayable",
      "type": "function"
    },
    {
      "constant": false,
      "inputs": [],
      "name": "claim",
      "outputs": [],
      "payable": false,
      "stateMutability": "nonpayable",
      "type": "function"
    },
    {
      "constant": false,
      "inputs": [],
      "name": "safetyHatchClaim",
      "outputs": [],
      "payable": false,
      "stateMutability": "nonpayable",
      "type": "function"
    }
  ],
  "bytecode": "0x608060405234801561001057600080fd5b506040516111733803806111738339810180604052810190808051906020019092919080519060200190929190805190602001909291908051820192919060200180519060200190929190505050846000806101000a81548173ffffffffffffffffffffffffffffffffffffffff021916908373ffffffffffffffffffffffffffffffffffffffff16021790555083600160006101000a81548173ffffffffffffffffffffffffffffffffffffffff021916908373ffffffffffffffffffffffffffffffffffffffff16021790555081600490805190602001906100f59291906101db565b5082600260006101000a81548173ffffffffffffffffffffffffffffffffffffffff021916908373ffffffffffffffffffffffffffffffffffffffff16021790555082600360006101000a81548173ffffffffffffffffffffffffffffffffffffffff021916908373ffffffffffffffffffffffffffffffffffffffff1602179055508060058190555062278d006005540160068190555062278d00600654016007819055506000600860006101000a81548160ff0219169083151502179055506000600860016101000a81548160ff0219169083151502179055505050505050610280565b828054600181600116156101000203166002900490600052602060002090601f016020900481019282601f1061021c57805160ff191683800117855561024a565b8280016001018555821561024a579182015b8281111561024957825182559160200191906001019061022e565b5b509050610257919061025b565b5090565b61027d91905b80821115610279576000816000905550600101610261565b5090565b90565b610ee48061028f6000396000f3006080604052600436106100d0576000357c0100000000000000000000000000000000000000000000000000000000900463ffffffff16806307171d7f1461018d578063306a7ce0146101a45780634bb278f3146101d35780634e71d92d146101ea57806370a082311461020157806378bbca82146102585780637b8c8de1146102e8578063877303091461033f578063956236411461036a578063bc3fde4e146103c1578063bdcb75fb146103ec578063ce606ee014610443578063d87a328a1461049a578063e8e3ae69146104c5575b60055442111515156100e157600080fd5b6000341115156100f057600080fd5b34600960003373ffffffffffffffffffffffffffffffffffffffff1673ffffffffffffffffffffffffffffffffffffffff168152602001908152602001600020600082825401925050819055503373ffffffffffffffffffffffffffffffffffffffff167f88a5966d370b9919b20f3e2c13ff65706f196a4e32cc2c12bf57088f88525874346040518082815260200191505060405180910390a2005b34801561019957600080fd5b506101a26104f4565b005b3480156101b057600080fd5b506101b9610687565b604051808215151515815260200191505060405180910390f35b3480156101df57600080fd5b506101e861069a565b005b3480156101f657600080fd5b506101ff61084a565b005b34801561020d57600080fd5b50610242600480360381019080803573ffffffffffffffffffffffffffffffffffffffff1690602001909291905050506109aa565b6040518082815260200191505060405180910390f35b34801561026457600080fd5b5061026d610a12565b6040518080602001828103825283818151815260200191508051906020019080838360005b838110156102ad578082015181840152602081019050610292565b50505050905090810190601f1680156102da5780820380516001836020036101000a031916815260200191505b509250505060405180910390f35b3480156102f457600080fd5b50610329600480360381019080803573ffffffffffffffffffffffffffffffffffffffff169060200190929190505050610ab0565b6040518082815260200191505060405180910390f35b34801561034b57600080fd5b50610354610ac8565b6040518082815260200191505060405180910390f35b34801561037657600080fd5b5061037f610ace565b604051808273ffffffffffffffffffffffffffffffffffffffff1673ffffffffffffffffffffffffffffffffffffffff16815260200191505060405180910390f35b3480156103cd57600080fd5b506103d6610af4565b6040518082815260200191505060405180910390f35b3480156103f857600080fd5b50610401610afa565b604051808273ffffffffffffffffffffffffffffffffffffffff1673ffffffffffffffffffffffffffffffffffffffff16815260200191505060405180910390f35b34801561044f57600080fd5b50610458610b20565b604051808273ffffffffffffffffffffffffffffffffffffffff1673ffffffffffffffffffffffffffffffffffffffff16815260200191505060405180910390f35b3480156104a657600080fd5b506104af610b45565b6040518082815260200191505060405180910390f35b3480156104d157600080fd5b506104da610b4b565b604051808215151515815260200191505060405180910390f35b60006007544211151561050657600080fd5b6000809054906101000a900473ffffffffffffffffffffffffffffffffffffffff1673ffffffffffffffffffffffffffffffffffffffff163373ffffffffffffffffffffffffffffffffffffffff1614151561056157600080fd5b3073ffffffffffffffffffffffffffffffffffffffff163190506000809054906101000a900473ffffffffffffffffffffffffffffffffffffffff1673ffffffffffffffffffffffffffffffffffffffff166108fc3073ffffffffffffffffffffffffffffffffffffffff16319081150290604051600060405180830381858888f193505050501580156105f9573d6000803e3d6000fd5b506001600860026101000a81548160ff0219169083151502179055506000809054906101000a900473ffffffffffffffffffffffffffffffffffffffff1673ffffffffffffffffffffffffffffffffffffffff167f1ac1e39f5a410afcc9fd213aab1b92287e00cf00e216f3776f352ab328d124f9826040518082815260200191505060405180910390a250565b600860019054906101000a900460ff1681565b600080600554421115156106ad57600080fd5b60065442111515156106be57600080fd5b600860009054906101000a900460ff161515156106da57600080fd5b6106e2610b5e565b600860018295508391906101000a81548160ff021916908315150217905550505081151561084657600860019054906101000a900460ff161561082a573073ffffffffffffffffffffffffffffffffffffffff16319050600160009054906101000a900473ffffffffffffffffffffffffffffffffffffffff1673ffffffffffffffffffffffffffffffffffffffff166108fc3073ffffffffffffffffffffffffffffffffffffffff16319081150290604051600060405180830381858888f193505050501580156107b8573d6000803e3d6000fd5b50600160009054906101000a900473ffffffffffffffffffffffffffffffffffffffff1673ffffffffffffffffffffffffffffffffffffffff167f2a01595cddf097c90216094025db714da3f4e5bd8877b56ba86a24ecead8e543826040518082815260200191505060405180910390a25b6001600860006101000a81548160ff0219169083151502179055505b5050565b60006005544211151561085c57600080fd5b600860009054906101000a900460ff1680610878575060065442115b151561088357600080fd5b600860019054906101000a900460ff1615806108a0575060065442115b15156108ab57600080fd5b60006108b6336109aa565b1115156108c257600080fd5b6108cb336109aa565b90503373ffffffffffffffffffffffffffffffffffffffff166108fc829081150290604051600060405180830381858888f19350505050158015610913573d6000803e3d6000fd5b506000600960003373ffffffffffffffffffffffffffffffffffffffff1673ffffffffffffffffffffffffffffffffffffffff168152602001908152602001600020819055503373ffffffffffffffffffffffffffffffffffffffff167fd8138f8a3f377c5259ca548e70e4c2de94f129f5a11036a15b69513cba2b426a826040518082815260200191505060405180910390a250565b6000600860029054906101000a900460ff16156109ca5760009050610a0d565b600960008373ffffffffffffffffffffffffffffffffffffffff1673ffffffffffffffffffffffffffffffffffffffff1681526020019081526020016000205490505b919050565b60048054600181600116156101000203166002900480601f016020809104026020016040519081016040528092919081815260200182805460018160011615610100020316600290048015610aa85780601f10610a7d57610100808354040283529160200191610aa8565b820191906000526020600020905b815481529060010190602001808311610a8b57829003601f168201915b505050505081565b60096020528060005260406000206000915090505481565b60065481565b600260009054906101000a900473ffffffffffffffffffffffffffffffffffffffff1681565b60055481565b600160009054906101000a900473ffffffffffffffffffffffffffffffffffffffff1681565b6000809054906101000a900473ffffffffffffffffffffffffffffffffffffffff1681565b60075481565b600860009054906101000a900460ff1681565b600080600080600360009054906101000a900473ffffffffffffffffffffffffffffffffffffffff1673ffffffffffffffffffffffffffffffffffffffff16638d4e40836040518163ffffffff167c0100000000000000000000000000000000000000000000000000000000028152600401602060405180830381600087803b158015610bea57600080fd5b505af1158015610bfe573d6000803e3d6000fd5b505050506040513d6020811015610c1457600080fd5b810190808051906020019092919050505015610ea957600360009054906101000a900473ffffffffffffffffffffffffffffffffffffffff1673ffffffffffffffffffffffffffffffffffffffff166304be2f506040518163ffffffff167c0100000000000000000000000000000000000000000000000000000000028152600401602060405180830381600087803b158015610cb057600080fd5b505af1158015610cc4573d6000803e3d6000fd5b505050506040513d6020811015610cda57600080fd5b810190808051906020019092919050505015610cfd576000600193509350610eb2565b600360009054906101000a900473ffffffffffffffffffffffffffffffffffffffff1673ffffffffffffffffffffffffffffffffffffffff16633c26482060006040518263ffffffff167c010000000000000000000000000000000000000000000000000000000002815260040180828152602001915050602060405180830381600087803b158015610d8f57600080fd5b505af1158015610da3573d6000803e3d6000fd5b505050506040513d6020811015610db957600080fd5b81019080805190602001909291905050509150600360009054906101000a900473ffffffffffffffffffffffffffffffffffffffff1673ffffffffffffffffffffffffffffffffffffffff16633c26482060016040518263ffffffff167c010000000000000000000000000000000000000000000000000000000002815260040180828152602001915050602060405180830381600087803b158015610e5e57600080fd5b505af1158015610e72573d6000803e3d6000fd5b505050506040513d6020811015610e8857600080fd5b81019080805190602001909291905050509050818111600093509350610eb2565b60006001935093505b505090915600a165627a7a723058205c1ef8377d46f0d466f97f9e4fff3c2f8c73986cb55a21220fee8e778dcbbedd0029",
  "source": "pragma solidity ^0.4.24;\n\nimport \"./IMarket.sol\";\n\ncontract CharityChallenge {\n\n    event Received(address indexed sender, uint256 value);\n\n    event Donated(address indexed npo, uint256 value);\n\n    event Claimed(address indexed claimer, uint256 value);\n\n    event SafetyHatchClaimed(address indexed claimer, uint256 value);\n\n    address public contractOwner;\n\n    address public npoAddress;\n\n    address public marketAddress;\n\n    IMarket market;\n\n    string public challengeName;\n\n    uint256 public challengeEndTime;\n\n    uint256 public challengeSafetyHatchTime1;\n\n    uint256 public challengeSafetyHatchTime2;\n\n    bool public isEventFinalizedAndValid;\n\n    bool public hasChallengeAccomplished;\n\n    bool private safetyHatchClaimSucceeded;\n\n    mapping(address => uint256) public donorBalances;\n\n    constructor(\n        address _contractOwner,\n        address _npoAddress,\n        address _marketAddress,\n        string _challengeName,\n        uint256 _challengeEndTime\n    ) public\n    {\n        contractOwner = _contractOwner;\n        npoAddress = _npoAddress;\n        challengeName = _challengeName;\n        marketAddress = _marketAddress;\n        market = IMarket(_marketAddress);\n        challengeEndTime = _challengeEndTime;\n        challengeSafetyHatchTime1 = challengeEndTime + 30 days;\n        challengeSafetyHatchTime2 = challengeSafetyHatchTime1 + 30 days;\n        isEventFinalizedAndValid = false;\n        hasChallengeAccomplished = false;\n    }\n\n    function() public payable {\n        require(now <= challengeEndTime);\n        require(msg.value > 0);\n\n        donorBalances[msg.sender] += msg.value;\n        emit Received(msg.sender, msg.value);\n    }\n\n    function balanceOf(address _donorAddress) public view returns (uint256) {\n        if (safetyHatchClaimSucceeded) {\n            return 0;\n        }\n        return donorBalances[_donorAddress];\n    }\n\n    function finalize() external {\n        require(now > challengeEndTime);\n        require(now <= challengeSafetyHatchTime1);\n        require(!isEventFinalizedAndValid);\n\n        bool hasError;\n        (hasChallengeAccomplished, hasError) = checkAugur();\n        if (!hasError) {\n            if (hasChallengeAccomplished) {\n                uint256 totalContractBalance = address(this).balance;\n                npoAddress.transfer(address(this).balance);\n                emit Donated(npoAddress, totalContractBalance);\n            }\n            isEventFinalizedAndValid = true;\n        }\n    }\n\n    function claim() external {\n        require(now > challengeEndTime);\n        require(isEventFinalizedAndValid || now > challengeSafetyHatchTime1);\n        require(!hasChallengeAccomplished || now > challengeSafetyHatchTime1);\n        require(balanceOf(msg.sender) > 0);\n\n        uint256 claimedAmount = balanceOf(msg.sender);\n        msg.sender.transfer(claimedAmount);\n        donorBalances[msg.sender] = 0;\n        emit Claimed(msg.sender, claimedAmount);\n    }\n\n    function safetyHatchClaim() external {\n        require(now > challengeSafetyHatchTime2);\n        require(msg.sender == contractOwner);\n\n        uint totalContractBalance = address(this).balance;\n        contractOwner.transfer(address(this).balance);\n        safetyHatchClaimSucceeded = true;\n        emit SafetyHatchClaimed(contractOwner, totalContractBalance);\n    }\n\n    function checkAugur() private view returns (bool happened, bool errored) {\n        if (market.isFinalized()) {\n            if (market.isInvalid()) {\n                return (false, true);\n            } else {\n                uint256 no = market.getWinningPayoutNumerator(0);\n                uint256 yes = market.getWinningPayoutNumerator(1);\n                return (yes > no, false);\n            }\n        } else {\n            return (false, true);\n        }\n    }\n}\n",
  "sourcePath": "/Users/minheq2/Documents/Repositories/charity-challenge-contract/contracts/CharityChallenge.sol",
  "compiler": {
    "name": "solc",
    "version": "0.4.24+commit.e67f0147.Emscripten.clang"
  },
  "schemaVersion": "2.0.1",
  "updatedAt": "2018-11-26T04:18:41.679Z"
}