{
  "contractName": "CharityChallenge",
  "abi": [
    {
      "constant": true,
      "inputs": [],
      "name": "hasChallengeAccomplished",
      "outputs": [
        {
          "name": "",
          "type": "bool"
        }
      ],
      "payable": false,
      "stateMutability": "view",
      "type": "function"
    },
    {
      "constant": true,
      "inputs": [],
      "name": "challengeName",
      "outputs": [
        {
          "name": "",
          "type": "string"
        }
      ],
      "payable": false,
      "stateMutability": "view",
      "type": "function"
    },
    {
      "constant": true,
      "inputs": [
        {
          "name": "",
          "type": "address"
        }
      ],
      "name": "donorBalances",
      "outputs": [
        {
          "name": "",
          "type": "uint256"
        }
      ],
      "payable": false,
      "stateMutability": "view",
      "type": "function"
    },
    {
      "constant": true,
      "inputs": [],
      "name": "challengeSafetyHatchTime1",
      "outputs": [
        {
          "name": "",
          "type": "uint256"
        }
      ],
      "payable": false,
      "stateMutability": "view",
      "type": "function"
    },
    {
      "constant": true,
      "inputs": [],
      "name": "marketAddress",
      "outputs": [
        {
          "name": "",
          "type": "address"
        }
      ],
      "payable": false,
      "stateMutability": "view",
      "type": "function"
    },
    {
      "constant": true,
      "inputs": [],
      "name": "challengeEndTime",
      "outputs": [
        {
          "name": "",
          "type": "uint256"
        }
      ],
      "payable": false,
      "stateMutability": "view",
      "type": "function"
    },
    {
      "constant": true,
      "inputs": [],
      "name": "npoAddress",
      "outputs": [
        {
          "name": "",
          "type": "address"
        }
      ],
      "payable": false,
      "stateMutability": "view",
      "type": "function"
    },
    {
      "constant": true,
      "inputs": [],
      "name": "contractOwner",
      "outputs": [
        {
          "name": "",
          "type": "address"
        }
      ],
      "payable": false,
      "stateMutability": "view",
      "type": "function"
    },
    {
      "constant": true,
      "inputs": [],
      "name": "challengeSafetyHatchTime2",
      "outputs": [
        {
          "name": "",
          "type": "uint256"
        }
      ],
      "payable": false,
      "stateMutability": "view",
      "type": "function"
    },
    {
      "constant": true,
      "inputs": [],
      "name": "isEventFinalizedAndValid",
      "outputs": [
        {
          "name": "",
          "type": "bool"
        }
      ],
      "payable": false,
      "stateMutability": "view",
      "type": "function"
    },
    {
      "inputs": [
        {
          "name": "_contractOwner",
          "type": "address"
        },
        {
          "name": "_npoAddress",
          "type": "address"
        },
        {
          "name": "_marketAddress",
          "type": "address"
        },
        {
          "name": "_challengeName",
          "type": "string"
        }
      ],
      "payable": false,
      "stateMutability": "nonpayable",
      "type": "constructor"
    },
    {
      "payable": true,
      "stateMutability": "payable",
      "type": "fallback"
    },
    {
      "anonymous": false,
      "inputs": [
        {
          "indexed": true,
          "name": "sender",
          "type": "address"
        },
        {
          "indexed": false,
          "name": "value",
          "type": "uint256"
        }
      ],
      "name": "Received",
      "type": "event"
    },
    {
      "anonymous": false,
      "inputs": [
        {
          "indexed": true,
          "name": "npo",
          "type": "address"
        },
        {
          "indexed": false,
          "name": "value",
          "type": "uint256"
        }
      ],
      "name": "Donated",
      "type": "event"
    },
    {
      "anonymous": false,
      "inputs": [
        {
          "indexed": true,
          "name": "claimer",
          "type": "address"
        },
        {
          "indexed": false,
          "name": "value",
          "type": "uint256"
        }
      ],
      "name": "Claimed",
      "type": "event"
    },
    {
      "anonymous": false,
      "inputs": [
        {
          "indexed": true,
          "name": "claimer",
          "type": "address"
        },
        {
          "indexed": false,
          "name": "value",
          "type": "uint256"
        }
      ],
      "name": "SafetyHatchClaimed",
      "type": "event"
    },
    {
      "constant": true,
      "inputs": [
        {
          "name": "_donorAddress",
          "type": "address"
        }
      ],
      "name": "balanceOf",
      "outputs": [
        {
          "name": "",
          "type": "uint256"
        }
      ],
      "payable": false,
      "stateMutability": "view",
      "type": "function"
    },
    {
      "constant": false,
      "inputs": [],
      "name": "finalize",
      "outputs": [],
      "payable": false,
      "stateMutability": "nonpayable",
      "type": "function"
    },
    {
      "constant": false,
      "inputs": [],
      "name": "claim",
      "outputs": [],
      "payable": false,
      "stateMutability": "nonpayable",
      "type": "function"
    },
    {
      "constant": false,
      "inputs": [],
      "name": "safetyHatchClaim",
      "outputs": [],
      "payable": false,
      "stateMutability": "nonpayable",
      "type": "function"
    }
  ],
  "bytecode": "0x60806040523480156200001157600080fd5b50604051620012a4380380620012a4833981018060405260808110156200003757600080fd5b8101908080519060200190929190805190602001909291908051906020019092919080516401000000008111156200006e57600080fd5b828101905060208101848111156200008557600080fd5b8151856001820283011164010000000082111715620000a357600080fd5b5050929190505050836000806101000a81548173ffffffffffffffffffffffffffffffffffffffff021916908373ffffffffffffffffffffffffffffffffffffffff16021790555082600160006101000a81548173ffffffffffffffffffffffffffffffffffffffff021916908373ffffffffffffffffffffffffffffffffffffffff160217905550806004908051906020019062000144929190620002eb565b5081600260006101000a81548173ffffffffffffffffffffffffffffffffffffffff021916908373ffffffffffffffffffffffffffffffffffffffff16021790555081600360006101000a81548173ffffffffffffffffffffffffffffffffffffffff021916908373ffffffffffffffffffffffffffffffffffffffff160217905550600360009054906101000a900473ffffffffffffffffffffffffffffffffffffffff1673ffffffffffffffffffffffffffffffffffffffff1663439f5ac26040518163ffffffff167c010000000000000000000000000000000000000000000000000000000002815260040160206040518083038186803b1580156200024c57600080fd5b505afa15801562000261573d6000803e3d6000fd5b505050506040513d60208110156200027857600080fd5b810190808051906020019092919050505060058190555062278d006005540160068190555062278d00600654016007819055506000600860006101000a81548160ff0219169083151502179055506000600860016101000a81548160ff021916908315150217905550505050506200039a565b828054600181600116156101000203166002900490600052602060002090601f016020900481019282601f106200032e57805160ff19168380011785556200035f565b828001600101855582156200035f579182015b828111156200035e57825182559160200191906001019062000341565b5b5090506200036e919062000372565b5090565b6200039791905b808211156200039357600081600090555060010162000379565b5090565b90565b610efa80620003aa6000396000f3fe6080604052600436106100d0576000357c0100000000000000000000000000000000000000000000000000000000900463ffffffff16806307171d7f1461018d578063306a7ce0146101a45780634bb278f3146101d35780634e71d92d146101ea57806370a082311461020157806378bbca82146102665780637b8c8de1146102f6578063877303091461035b5780639562364114610386578063bc3fde4e146103dd578063bdcb75fb14610408578063ce606ee01461045f578063d87a328a146104b6578063e8e3ae69146104e1575b60055442111515156100e157600080fd5b6000341115156100f057600080fd5b34600960003373ffffffffffffffffffffffffffffffffffffffff1673ffffffffffffffffffffffffffffffffffffffff168152602001908152602001600020600082825401925050819055503373ffffffffffffffffffffffffffffffffffffffff167f88a5966d370b9919b20f3e2c13ff65706f196a4e32cc2c12bf57088f88525874346040518082815260200191505060405180910390a2005b34801561019957600080fd5b506101a2610510565b005b3480156101b057600080fd5b506101b96106a3565b604051808215151515815260200191505060405180910390f35b3480156101df57600080fd5b506101e86106b6565b005b3480156101f657600080fd5b506101ff610867565b005b34801561020d57600080fd5b506102506004803603602081101561022457600080fd5b81019080803573ffffffffffffffffffffffffffffffffffffffff1690602001909291905050506109c7565b6040518082815260200191505060405180910390f35b34801561027257600080fd5b5061027b610a2f565b6040518080602001828103825283818151815260200191508051906020019080838360005b838110156102bb5780820151818401526020810190506102a0565b50505050905090810190601f1680156102e85780820380516001836020036101000a031916815260200191505b509250505060405180910390f35b34801561030257600080fd5b506103456004803603602081101561031957600080fd5b81019080803573ffffffffffffffffffffffffffffffffffffffff169060200190929190505050610acd565b6040518082815260200191505060405180910390f35b34801561036757600080fd5b50610370610ae5565b6040518082815260200191505060405180910390f35b34801561039257600080fd5b5061039b610aeb565b604051808273ffffffffffffffffffffffffffffffffffffffff1673ffffffffffffffffffffffffffffffffffffffff16815260200191505060405180910390f35b3480156103e957600080fd5b506103f2610b11565b6040518082815260200191505060405180910390f35b34801561041457600080fd5b5061041d610b17565b604051808273ffffffffffffffffffffffffffffffffffffffff1673ffffffffffffffffffffffffffffffffffffffff16815260200191505060405180910390f35b34801561046b57600080fd5b50610474610b3d565b604051808273ffffffffffffffffffffffffffffffffffffffff1673ffffffffffffffffffffffffffffffffffffffff16815260200191505060405180910390f35b3480156104c257600080fd5b506104cb610b62565b6040518082815260200191505060405180910390f35b3480156104ed57600080fd5b506104f6610b68565b604051808215151515815260200191505060405180910390f35b6007544211151561052057600080fd5b6000809054906101000a900473ffffffffffffffffffffffffffffffffffffffff1673ffffffffffffffffffffffffffffffffffffffff163373ffffffffffffffffffffffffffffffffffffffff1614151561057b57600080fd5b60003073ffffffffffffffffffffffffffffffffffffffff163190506000809054906101000a900473ffffffffffffffffffffffffffffffffffffffff1673ffffffffffffffffffffffffffffffffffffffff166108fc3073ffffffffffffffffffffffffffffffffffffffff16319081150290604051600060405180830381858888f19350505050158015610615573d6000803e3d6000fd5b506001600860026101000a81548160ff0219169083151502179055506000809054906101000a900473ffffffffffffffffffffffffffffffffffffffff1673ffffffffffffffffffffffffffffffffffffffff167f1ac1e39f5a410afcc9fd213aab1b92287e00cf00e216f3776f352ab328d124f9826040518082815260200191505060405180910390a250565b600860019054906101000a900460ff1681565b600554421115156106c657600080fd5b60065442111515156106d757600080fd5b600860009054906101000a900460ff161515156106f357600080fd5b60006106fd610b7b565b600860018294508391906101000a81548160ff021916908315150217905550505080151561086457600860019054906101000a900460ff16156108485760003073ffffffffffffffffffffffffffffffffffffffff16319050600160009054906101000a900473ffffffffffffffffffffffffffffffffffffffff1673ffffffffffffffffffffffffffffffffffffffff166108fc3073ffffffffffffffffffffffffffffffffffffffff16319081150290604051600060405180830381858888f193505050501580156107d5573d6000803e3d6000fd5b50600160009054906101000a900473ffffffffffffffffffffffffffffffffffffffff1673ffffffffffffffffffffffffffffffffffffffff167f2a01595cddf097c90216094025db714da3f4e5bd8877b56ba86a24ecead8e543826040518082815260200191505060405180910390a2505b6001600860006101000a81548160ff0219169083151502179055505b50565b6005544211151561087757600080fd5b600860009054906101000a900460ff1680610893575060065442115b151561089e57600080fd5b600860019054906101000a900460ff1615806108bb575060065442115b15156108c657600080fd5b60006108d1336109c7565b1115156108dd57600080fd5b60006108e8336109c7565b90503373ffffffffffffffffffffffffffffffffffffffff166108fc829081150290604051600060405180830381858888f19350505050158015610930573d6000803e3d6000fd5b506000600960003373ffffffffffffffffffffffffffffffffffffffff1673ffffffffffffffffffffffffffffffffffffffff168152602001908152602001600020819055503373ffffffffffffffffffffffffffffffffffffffff167fd8138f8a3f377c5259ca548e70e4c2de94f129f5a11036a15b69513cba2b426a826040518082815260200191505060405180910390a250565b6000600860029054906101000a900460ff16156109e75760009050610a2a565b600960008373ffffffffffffffffffffffffffffffffffffffff1673ffffffffffffffffffffffffffffffffffffffff1681526020019081526020016000205490505b919050565b60048054600181600116156101000203166002900480601f016020809104026020016040519081016040528092919081815260200182805460018160011615610100020316600290048015610ac55780601f10610a9a57610100808354040283529160200191610ac5565b820191906000526020600020905b815481529060010190602001808311610aa857829003601f168201915b505050505081565b60096020528060005260406000206000915090505481565b60065481565b600260009054906101000a900473ffffffffffffffffffffffffffffffffffffffff1681565b60055481565b600160009054906101000a900473ffffffffffffffffffffffffffffffffffffffff1681565b6000809054906101000a900473ffffffffffffffffffffffffffffffffffffffff1681565b60075481565b600860009054906101000a900460ff1681565b600080600360009054906101000a900473ffffffffffffffffffffffffffffffffffffffff1673ffffffffffffffffffffffffffffffffffffffff16638d4e40836040518163ffffffff167c010000000000000000000000000000000000000000000000000000000002815260040160206040518083038186803b158015610c0257600080fd5b505afa158015610c16573d6000803e3d6000fd5b505050506040513d6020811015610c2c57600080fd5b810190808051906020019092919050505015610ec157600360009054906101000a900473ffffffffffffffffffffffffffffffffffffffff1673ffffffffffffffffffffffffffffffffffffffff166304be2f506040518163ffffffff167c010000000000000000000000000000000000000000000000000000000002815260040160206040518083038186803b158015610cc657600080fd5b505afa158015610cda573d6000803e3d6000fd5b505050506040513d6020811015610cf057600080fd5b810190808051906020019092919050505015610d13576000600191509150610eca565b6000600360009054906101000a900473ffffffffffffffffffffffffffffffffffffffff1673ffffffffffffffffffffffffffffffffffffffff16633c26482060006040518263ffffffff167c01000000000000000000000000000000000000000000000000000000000281526004018082815260200191505060206040518083038186803b158015610da557600080fd5b505afa158015610db9573d6000803e3d6000fd5b505050506040513d6020811015610dcf57600080fd5b810190808051906020019092919050505090506000600360009054906101000a900473ffffffffffffffffffffffffffffffffffffffff1673ffffffffffffffffffffffffffffffffffffffff16633c26482060016040518263ffffffff167c01000000000000000000000000000000000000000000000000000000000281526004018082815260200191505060206040518083038186803b158015610e7457600080fd5b505afa158015610e88573d6000803e3d6000fd5b505050506040513d6020811015610e9e57600080fd5b810190808051906020019092919050505090508181116000935093505050610eca565b60006001915091505b909156fea165627a7a72305820dcfc2ce555543d59d16b645c9d18598af7a2976190a2ac1caec6d2716be5cc920029",
  "source": "pragma solidity ^0.5.0;\n\nimport \"./IMarket.sol\";\n\ncontract CharityChallenge {\n\n    event Received(address indexed sender, uint256 value);\n\n    event Donated(address indexed npo, uint256 value);\n\n    event Claimed(address indexed claimer, uint256 value);\n\n    event SafetyHatchClaimed(address indexed claimer, uint256 value);\n\n    address payable public contractOwner;\n\n    address payable public npoAddress;\n\n    address public marketAddress;\n\n    IMarket market;\n\n    string public challengeName;\n\n    uint256 public challengeEndTime;\n\n    uint256 public challengeSafetyHatchTime1;\n\n    uint256 public challengeSafetyHatchTime2;\n\n    bool public isEventFinalizedAndValid;\n\n    bool public hasChallengeAccomplished;\n\n    bool private safetyHatchClaimSucceeded;\n\n    mapping(address => uint256) public donorBalances;\n\n    constructor(\n        address payable _contractOwner,\n        address payable _npoAddress,\n        address _marketAddress,\n        string memory _challengeName\n    ) public\n    {\n        contractOwner = _contractOwner;\n        npoAddress = _npoAddress;\n        challengeName = _challengeName;\n        marketAddress = _marketAddress;\n        market = IMarket(_marketAddress);\n        challengeEndTime = market.getEndTime();\n        challengeSafetyHatchTime1 = challengeEndTime + 30 days;\n        challengeSafetyHatchTime2 = challengeSafetyHatchTime1 + 30 days;\n        isEventFinalizedAndValid = false;\n        hasChallengeAccomplished = false;\n    }\n\n    function() external payable {\n        require(now <= challengeEndTime);\n        require(msg.value > 0);\n\n        donorBalances[msg.sender] += msg.value;\n        emit Received(msg.sender, msg.value);\n    }\n\n    function balanceOf(address _donorAddress) public view returns (uint256) {\n        if (safetyHatchClaimSucceeded) {\n            return 0;\n        }\n        return donorBalances[_donorAddress];\n    }\n\n    function finalize() external {\n        require(now > challengeEndTime);\n        require(now <= challengeSafetyHatchTime1);\n        require(!isEventFinalizedAndValid);\n\n        bool hasError;\n        (hasChallengeAccomplished, hasError) = checkAugur();\n        if (!hasError) {\n            if (hasChallengeAccomplished) {\n                uint256 totalContractBalance = address(this).balance;\n                npoAddress.transfer(address(this).balance);\n                emit Donated(npoAddress, totalContractBalance);\n            }\n            isEventFinalizedAndValid = true;\n        }\n    }\n\n    function claim() external {\n        require(now > challengeEndTime);\n        require(isEventFinalizedAndValid || now > challengeSafetyHatchTime1);\n        require(!hasChallengeAccomplished || now > challengeSafetyHatchTime1);\n        require(balanceOf(msg.sender) > 0);\n\n        uint256 claimedAmount = balanceOf(msg.sender);\n        msg.sender.transfer(claimedAmount);\n        donorBalances[msg.sender] = 0;\n        emit Claimed(msg.sender, claimedAmount);\n    }\n\n    function safetyHatchClaim() external {\n        require(now > challengeSafetyHatchTime2);\n        require(msg.sender == contractOwner);\n\n        uint totalContractBalance = address(this).balance;\n        contractOwner.transfer(address(this).balance);\n        safetyHatchClaimSucceeded = true;\n        emit SafetyHatchClaimed(contractOwner, totalContractBalance);\n    }\n\n    function checkAugur() private view returns (bool happened, bool errored) {\n        if (market.isFinalized()) {\n            if (market.isInvalid()) {\n                return (false, true);\n            } else {\n                uint256 no = market.getWinningPayoutNumerator(0);\n                uint256 yes = market.getWinningPayoutNumerator(1);\n                return (yes > no, false);\n            }\n        } else {\n            return (false, true);\n        }\n    }\n}\n",
  "sourcePath": "/Users/tuyennguyen/Projects/charity-challenge/charity-challenge-contract/contracts/CharityChallenge.sol",
  "compiler": {
    "name": "solc",
    "version": "0.5.0+commit.1d4f565a.Emscripten.clang"
  },
  "schemaVersion": "3.0.2",
  "updatedAt": "2019-02-14T03:09:37.613Z",
  "devdoc": {
    "methods": {}
  },
  "userdoc": {
    "methods": {}
  }
}