{
  "contractName": "MarketMock",
  "abi": [
    {
      "inputs": [],
      "payable": false,
      "stateMutability": "nonpayable",
      "type": "constructor"
    },
    {
      "constant": true,
      "inputs": [],
      "name": "isFinalized",
      "outputs": [
        {
          "name": "",
          "type": "bool"
        }
      ],
      "payable": false,
      "stateMutability": "view",
      "type": "function"
    },
    {
      "constant": true,
      "inputs": [],
      "name": "isInvalid",
      "outputs": [
        {
          "name": "",
          "type": "bool"
        }
      ],
      "payable": false,
      "stateMutability": "view",
      "type": "function"
    },
    {
      "constant": true,
      "inputs": [
        {
          "name": "_outcome",
          "type": "uint256"
        }
      ],
      "name": "getWinningPayoutNumerator",
      "outputs": [
        {
          "name": "",
          "type": "uint256"
        }
      ],
      "payable": false,
      "stateMutability": "view",
      "type": "function"
    },
    {
      "constant": true,
      "inputs": [],
      "name": "getEndTime",
      "outputs": [
        {
          "name": "",
          "type": "uint256"
        }
      ],
      "payable": false,
      "stateMutability": "view",
      "type": "function"
    },
    {
      "constant": false,
      "inputs": [
        {
          "name": "_finalized",
          "type": "bool"
        }
      ],
      "name": "setFinalized",
      "outputs": [],
      "payable": false,
      "stateMutability": "nonpayable",
      "type": "function"
    },
    {
      "constant": false,
      "inputs": [
        {
          "name": "_invalid",
          "type": "bool"
        }
      ],
      "name": "setInvalid",
      "outputs": [],
      "payable": false,
      "stateMutability": "nonpayable",
      "type": "function"
    },
    {
      "constant": false,
      "inputs": [
        {
          "name": "_payoutNumerators",
          "type": "uint32[2]"
        }
      ],
      "name": "setPayoutNumerators",
      "outputs": [],
      "payable": false,
      "stateMutability": "nonpayable",
      "type": "function"
    },
    {
      "constant": false,
      "inputs": [
        {
          "name": "_endTime",
          "type": "uint256"
        }
      ],
      "name": "setEndTime",
      "outputs": [],
      "payable": false,
      "stateMutability": "nonpayable",
      "type": "function"
    }
  ],
  "bytecode": "0x608060405234801561001057600080fd5b5061045c806100206000396000f3fe60806040526004361061008e576000357c0100000000000000000000000000000000000000000000000000000000900463ffffffff16806304be2f501461009357806320b27291146100c257806329085679146100ff5780633c2648201461013c578063439f5ac21461018b578063467791bf146101b65780638d4e408314610228578063ccb98ffc14610257575b600080fd5b34801561009f57600080fd5b506100a8610292565b604051808215151515815260200191505060405180910390f35b3480156100ce57600080fd5b506100fd600480360360208110156100e557600080fd5b810190808035151590602001909291905050506102a8565b005b34801561010b57600080fd5b5061013a6004803603602081101561012257600080fd5b810190808035151590602001909291905050506102c4565b005b34801561014857600080fd5b506101756004803603602081101561015f57600080fd5b81019080803590602001909291905050506102e1565b6040518082815260200191505060405180910390f35b34801561019757600080fd5b506101a061031b565b6040518082815260200191505060405180910390f35b3480156101c257600080fd5b50610226600480360360408110156101d957600080fd5b8101908080604001906002806020026040519081016040528092919082600260200280828437600081840152601f19601f8201169050808301925050505050509192919290505050610325565b005b34801561023457600080fd5b5061023d61033a565b604051808215151515815260200191505060405180910390f35b34801561026357600080fd5b506102906004803603602081101561027a57600080fd5b8101908080359060200190929190505050610350565b005b60008060019054906101000a900460ff16905090565b806000806101000a81548160ff02191690831515021790555050565b80600060016101000a81548160ff02191690831515021790555050565b60006001826002811015156102f257fe5b600891828204019190066004029054906101000a900463ffffffff1663ffffffff169050919050565b6000600254905090565b80600190600261033692919061035a565b5050565b60008060009054906101000a900460ff16905090565b8060028190555050565b8260026007016008900481019282156103ec5791602002820160005b838211156103ba57835183826101000a81548163ffffffff021916908363ffffffff1602179055509260200192600401602081600301049283019260010302610376565b80156103ea5782816101000a81549063ffffffff02191690556004016020816003010492830192600103026103ba565b505b5090506103f991906103fd565b5090565b61042d91905b8082111561042957600081816101000a81549063ffffffff021916905550600101610403565b5090565b9056fea165627a7a72305820d715acbc9e1e7dc146dfd11441579807f9d16fe6004b2dbeab220ae384b52f790029",
  "source": "pragma solidity ^0.5.0;\n\nimport \"./IMarket.sol\";\n\ncontract MarketMock is IMarket {\n    bool finalized;\n    bool invalid;\n    uint32[2] payoutNumerators;\n    uint256 endTime;\n\n    constructor() public {\n    }\n\n    function isFinalized() public view returns (bool) {\n        return finalized;\n    }\n    \n    function isInvalid() public view returns (bool) {\n        return invalid;\n    }\n\n    function getWinningPayoutNumerator(uint256 _outcome) public view returns (uint256) {\n        return payoutNumerators[_outcome];\n    }\n\n    function getEndTime() public view returns (uint256) {\n        return endTime;\n    }\n    \n    function setFinalized(bool _finalized) public {\n        finalized = _finalized;\n    }\n\n    function setInvalid(bool _invalid) public {\n        invalid = _invalid;\n    }\n\n    function setPayoutNumerators(uint32[2] memory _payoutNumerators) public {\n        payoutNumerators = _payoutNumerators;\n    }\n\n    function setEndTime(uint256 _endTime) public {\n      endTime = _endTime;\n    }\n}\n",
  "sourcePath": "/Users/tuyennguyen/Projects/charity-challenge/charity-challenge-contract/contracts/MarketMock.sol",
  "compiler": {
    "name": "solc",
    "version": "0.5.0+commit.1d4f565a.Emscripten.clang"
  },
  "schemaVersion": "3.0.2",
  "updatedAt": "2019-02-14T04:31:21.573Z",
  "devdoc": {
    "methods": {}
  },
  "userdoc": {
    "methods": {}
  }
}