{
  "contractName": "MarketMock",
  "abi": [
    {
      "inputs": [],
      "payable": false,
      "stateMutability": "nonpayable",
      "type": "constructor"
    },
    {
      "constant": true,
      "inputs": [],
      "name": "isFinalized",
      "outputs": [
        {
          "name": "",
          "type": "bool"
        }
      ],
      "payable": false,
      "stateMutability": "view",
      "type": "function"
    },
    {
      "constant": true,
      "inputs": [],
      "name": "isInvalid",
      "outputs": [
        {
          "name": "",
          "type": "bool"
        }
      ],
      "payable": false,
      "stateMutability": "view",
      "type": "function"
    },
    {
      "constant": true,
      "inputs": [
        {
          "name": "_outcome",
          "type": "uint256"
        }
      ],
      "name": "getWinningPayoutNumerator",
      "outputs": [
        {
          "name": "",
          "type": "uint256"
        }
      ],
      "payable": false,
      "stateMutability": "view",
      "type": "function"
    },
    {
      "constant": false,
      "inputs": [
        {
          "name": "_finalized",
          "type": "bool"
        }
      ],
      "name": "setFinalized",
      "outputs": [],
      "payable": false,
      "stateMutability": "nonpayable",
      "type": "function"
    },
    {
      "constant": false,
      "inputs": [
        {
          "name": "_invalid",
          "type": "bool"
        }
      ],
      "name": "setInvalid",
      "outputs": [],
      "payable": false,
      "stateMutability": "nonpayable",
      "type": "function"
    },
    {
      "constant": false,
      "inputs": [
        {
          "name": "_payoutNumerators",
          "type": "uint32[2]"
        }
      ],
      "name": "setPayoutNumerators",
      "outputs": [],
      "payable": false,
      "stateMutability": "nonpayable",
      "type": "function"
    }
  ],
  "bytecode": "0x608060405234801561001057600080fd5b50610382806100206000396000f300608060405260043610610078576000357c0100000000000000000000000000000000000000000000000000000000900463ffffffff16806304be2f501461007d57806320b27291146100ac57806329085679146100db5780633c2648201461010a578063467791bf1461014b5780638d4e40831461019d575b600080fd5b34801561008957600080fd5b506100926101cc565b604051808215151515815260200191505060405180910390f35b3480156100b857600080fd5b506100d96004803603810190808035151590602001909291905050506101e2565b005b3480156100e757600080fd5b506101086004803603810190808035151590602001909291905050506101fe565b005b34801561011657600080fd5b506101356004803603810190808035906020019092919050505061021b565b6040518082815260200191505060405180910390f35b34801561015757600080fd5b5061019b6004803603810190808060400190600280602002604051908101604052809291908260026020028082843782019150505050509192919290505050610255565b005b3480156101a957600080fd5b506101b261026a565b604051808215151515815260200191505060405180910390f35b60008060019054906101000a900460ff16905090565b806000806101000a81548160ff02191690831515021790555050565b80600060016101000a81548160ff02191690831515021790555050565b600060018260028110151561022c57fe5b600891828204019190066004029054906101000a900463ffffffff1663ffffffff169050919050565b806001906002610266929190610280565b5050565b60008060009054906101000a900460ff16905090565b8260026007016008900481019282156103125791602002820160005b838211156102e057835183826101000a81548163ffffffff021916908363ffffffff160217905550926020019260040160208160030104928301926001030261029c565b80156103105782816101000a81549063ffffffff02191690556004016020816003010492830192600103026102e0565b505b50905061031f9190610323565b5090565b61035391905b8082111561034f57600081816101000a81549063ffffffff021916905550600101610329565b5090565b905600a165627a7a72305820ec3f698c2066e95022a5f3b5076526f247828ee213be7de05020508c92d8970b0029",
  "source": "pragma solidity ^0.4.24;\n\nimport \"./IMarket.sol\";\n\ncontract MarketMock is IMarket {\n    bool finalized;\n    bool invalid;\n    uint32[2] payoutNumerators;\n\n    constructor() public {\n    }\n\n    function isFinalized() public view returns (bool) {\n        return finalized;\n    }\n    \n    function isInvalid() public view returns (bool) {\n        return invalid;\n    }\n\n    function getWinningPayoutNumerator(uint256 _outcome) public view returns (uint256) {\n        return payoutNumerators[_outcome];\n    }\n    \n    function setFinalized(bool _finalized) public {\n        finalized = _finalized;\n    }\n\n    function setInvalid(bool _invalid) public {\n        invalid = _invalid;\n    }\n\n    function setPayoutNumerators(uint32[2] _payoutNumerators) public {\n        payoutNumerators = _payoutNumerators;\n    }\n}\n",
  "sourcePath": "/Users/minheq2/Documents/Repositories/charity-challenge-contract/contracts/MarketMock.sol",
  "compiler": {
    "name": "solc",
    "version": "0.4.24+commit.e67f0147.Emscripten.clang"
  },
  "schemaVersion": "2.0.1",
  "updatedAt": "2018-11-26T04:18:41.681Z"
}