{
  "contractName": "MarketMock",
  "abi": [
    {
      "inputs": [],
      "payable": false,
      "stateMutability": "nonpayable",
      "type": "constructor"
    },
    {
      "constant": true,
      "inputs": [],
      "name": "isFinalized",
      "outputs": [
        {
          "name": "",
          "type": "bool"
        }
      ],
      "payable": false,
      "stateMutability": "view",
      "type": "function"
    },
    {
      "constant": true,
      "inputs": [],
      "name": "isInvalid",
      "outputs": [
        {
          "name": "",
          "type": "bool"
        }
      ],
      "payable": false,
      "stateMutability": "view",
      "type": "function"
    },
    {
      "constant": true,
      "inputs": [
        {
          "name": "_outcome",
          "type": "uint256"
        }
      ],
      "name": "getWinningPayoutNumerator",
      "outputs": [
        {
          "name": "",
          "type": "uint256"
        }
      ],
      "payable": false,
      "stateMutability": "view",
      "type": "function"
    },
    {
      "constant": false,
      "inputs": [
        {
          "name": "_finalized",
          "type": "bool"
        }
      ],
      "name": "setFinalized",
      "outputs": [],
      "payable": false,
      "stateMutability": "nonpayable",
      "type": "function"
    },
    {
      "constant": false,
      "inputs": [
        {
          "name": "_invalid",
          "type": "bool"
        }
      ],
      "name": "setInvalid",
      "outputs": [],
      "payable": false,
      "stateMutability": "nonpayable",
      "type": "function"
    },
    {
      "constant": false,
      "inputs": [
        {
          "name": "_payoutNumerators",
          "type": "uint32[2]"
        }
      ],
      "name": "setPayoutNumerators",
      "outputs": [],
      "payable": false,
      "stateMutability": "nonpayable",
      "type": "function"
    }
  ],
  "bytecode": "0x608060405234801561001057600080fd5b506103cc806100206000396000f3fe608060405260043610610078576000357c0100000000000000000000000000000000000000000000000000000000900463ffffffff16806304be2f501461007d57806320b27291146100ac57806329085679146100e95780633c26482014610126578063467791bf146101755780638d4e4083146101e7575b600080fd5b34801561008957600080fd5b50610092610216565b604051808215151515815260200191505060405180910390f35b3480156100b857600080fd5b506100e7600480360360208110156100cf57600080fd5b8101908080351515906020019092919050505061022c565b005b3480156100f557600080fd5b506101246004803603602081101561010c57600080fd5b81019080803515159060200190929190505050610248565b005b34801561013257600080fd5b5061015f6004803603602081101561014957600080fd5b8101908080359060200190929190505050610265565b6040518082815260200191505060405180910390f35b34801561018157600080fd5b506101e56004803603604081101561019857600080fd5b8101908080604001906002806020026040519081016040528092919082600260200280828437600081840152601f19601f820116905080830192505050505050919291929050505061029f565b005b3480156101f357600080fd5b506101fc6102b4565b604051808215151515815260200191505060405180910390f35b60008060019054906101000a900460ff16905090565b806000806101000a81548160ff02191690831515021790555050565b80600060016101000a81548160ff02191690831515021790555050565b600060018260028110151561027657fe5b600891828204019190066004029054906101000a900463ffffffff1663ffffffff169050919050565b8060019060026102b09291906102ca565b5050565b60008060009054906101000a900460ff16905090565b82600260070160089004810192821561035c5791602002820160005b8382111561032a57835183826101000a81548163ffffffff021916908363ffffffff16021790555092602001926004016020816003010492830192600103026102e6565b801561035a5782816101000a81549063ffffffff021916905560040160208160030104928301926001030261032a565b505b509050610369919061036d565b5090565b61039d91905b8082111561039957600081816101000a81549063ffffffff021916905550600101610373565b5090565b9056fea165627a7a72305820a850b4a6a4d4a05c389d11cf03adcce8d7834afcb34f4c9a56042cdf9291924b0029",
  "source": "pragma solidity ^0.5.0;\n\nimport \"./IMarket.sol\";\n\ncontract MarketMock is IMarket {\n    bool finalized;\n    bool invalid;\n    uint32[2] payoutNumerators;\n\n    constructor() public {\n    }\n\n    function isFinalized() public view returns (bool) {\n        return finalized;\n    }\n    \n    function isInvalid() public view returns (bool) {\n        return invalid;\n    }\n\n    function getWinningPayoutNumerator(uint256 _outcome) public view returns (uint256) {\n        return payoutNumerators[_outcome];\n    }\n    \n    function setFinalized(bool _finalized) public {\n        finalized = _finalized;\n    }\n\n    function setInvalid(bool _invalid) public {\n        invalid = _invalid;\n    }\n\n    function setPayoutNumerators(uint32[2] memory _payoutNumerators) public {\n        payoutNumerators = _payoutNumerators;\n    }\n}\n",
  "sourcePath": "/Users/tuyennguyen/Projects/charity-challenge/charity-challenge-contract/contracts/MarketMock.sol",
  "compiler": {
    "name": "solc",
    "version": "0.5.0+commit.1d4f565a.Emscripten.clang"
  },
  "schemaVersion": "3.0.2",
  "updatedAt": "2019-02-13T08:27:25.911Z",
  "devdoc": {
    "methods": {}
  },
  "userdoc": {
    "methods": {}
  }
}