{
  "contractName": "TestableCharityChallenge",
  "abi": [
    {
      "constant": false,
      "inputs": [],
      "name": "safetyHatchClaim",
      "outputs": [],
      "payable": false,
      "stateMutability": "nonpayable",
      "type": "function"
    },
    {
      "constant": true,
      "inputs": [],
      "name": "hasChallengeAccomplished",
      "outputs": [
        {
          "name": "",
          "type": "bool"
        }
      ],
      "payable": false,
      "stateMutability": "view",
      "type": "function"
    },
    {
      "constant": false,
      "inputs": [],
      "name": "finalize",
      "outputs": [],
      "payable": false,
      "stateMutability": "nonpayable",
      "type": "function"
    },
    {
      "constant": false,
      "inputs": [],
      "name": "claim",
      "outputs": [],
      "payable": false,
      "stateMutability": "nonpayable",
      "type": "function"
    },
    {
      "constant": true,
      "inputs": [
        {
          "name": "_donorAddress",
          "type": "address"
        }
      ],
      "name": "balanceOf",
      "outputs": [
        {
          "name": "",
          "type": "uint256"
        }
      ],
      "payable": false,
      "stateMutability": "view",
      "type": "function"
    },
    {
      "constant": true,
      "inputs": [],
      "name": "challengeName",
      "outputs": [
        {
          "name": "",
          "type": "string"
        }
      ],
      "payable": false,
      "stateMutability": "view",
      "type": "function"
    },
    {
      "constant": true,
      "inputs": [
        {
          "name": "",
          "type": "address"
        }
      ],
      "name": "donorBalances",
      "outputs": [
        {
          "name": "",
          "type": "uint256"
        }
      ],
      "payable": false,
      "stateMutability": "view",
      "type": "function"
    },
    {
      "constant": true,
      "inputs": [],
      "name": "challengeSafetyHatchTime1",
      "outputs": [
        {
          "name": "",
          "type": "uint256"
        }
      ],
      "payable": false,
      "stateMutability": "view",
      "type": "function"
    },
    {
      "constant": true,
      "inputs": [],
      "name": "marketAddress",
      "outputs": [
        {
          "name": "",
          "type": "address"
        }
      ],
      "payable": false,
      "stateMutability": "view",
      "type": "function"
    },
    {
      "constant": true,
      "inputs": [],
      "name": "challengeEndTime",
      "outputs": [
        {
          "name": "",
          "type": "uint256"
        }
      ],
      "payable": false,
      "stateMutability": "view",
      "type": "function"
    },
    {
      "constant": true,
      "inputs": [],
      "name": "npoAddress",
      "outputs": [
        {
          "name": "",
          "type": "address"
        }
      ],
      "payable": false,
      "stateMutability": "view",
      "type": "function"
    },
    {
      "constant": true,
      "inputs": [],
      "name": "contractOwner",
      "outputs": [
        {
          "name": "",
          "type": "address"
        }
      ],
      "payable": false,
      "stateMutability": "view",
      "type": "function"
    },
    {
      "constant": true,
      "inputs": [],
      "name": "challengeSafetyHatchTime2",
      "outputs": [
        {
          "name": "",
          "type": "uint256"
        }
      ],
      "payable": false,
      "stateMutability": "view",
      "type": "function"
    },
    {
      "constant": true,
      "inputs": [],
      "name": "isEventFinalizedAndValid",
      "outputs": [
        {
          "name": "",
          "type": "bool"
        }
      ],
      "payable": false,
      "stateMutability": "view",
      "type": "function"
    },
    {
      "inputs": [
        {
          "name": "_contractOwner",
          "type": "address"
        },
        {
          "name": "_npoAddress",
          "type": "address"
        },
        {
          "name": "_marketAddress",
          "type": "address"
        },
        {
          "name": "_challengeName",
          "type": "string"
        },
        {
          "name": "_challengeEndTime",
          "type": "uint256"
        }
      ],
      "payable": false,
      "stateMutability": "nonpayable",
      "type": "constructor"
    },
    {
      "payable": true,
      "stateMutability": "payable",
      "type": "fallback"
    },
    {
      "anonymous": false,
      "inputs": [
        {
          "indexed": true,
          "name": "sender",
          "type": "address"
        },
        {
          "indexed": false,
          "name": "value",
          "type": "uint256"
        }
      ],
      "name": "Received",
      "type": "event"
    },
    {
      "anonymous": false,
      "inputs": [
        {
          "indexed": true,
          "name": "npo",
          "type": "address"
        },
        {
          "indexed": false,
          "name": "value",
          "type": "uint256"
        }
      ],
      "name": "Donated",
      "type": "event"
    },
    {
      "anonymous": false,
      "inputs": [
        {
          "indexed": true,
          "name": "claimer",
          "type": "address"
        },
        {
          "indexed": false,
          "name": "value",
          "type": "uint256"
        }
      ],
      "name": "Claimed",
      "type": "event"
    },
    {
      "anonymous": false,
      "inputs": [
        {
          "indexed": true,
          "name": "claimer",
          "type": "address"
        },
        {
          "indexed": false,
          "name": "value",
          "type": "uint256"
        }
      ],
      "name": "SafetyHatchClaimed",
      "type": "event"
    },
    {
      "constant": false,
      "inputs": [
        {
          "name": "_challengeEndTime",
          "type": "uint256"
        }
      ],
      "name": "setChallengeEndTime",
      "outputs": [],
      "payable": false,
      "stateMutability": "nonpayable",
      "type": "function"
    },
    {
      "constant": false,
      "inputs": [
        {
          "name": "_challengeSafetyHatchTime1",
          "type": "uint256"
        }
      ],
      "name": "setChallengeSafetyHatchTime1",
      "outputs": [],
      "payable": false,
      "stateMutability": "nonpayable",
      "type": "function"
    },
    {
      "constant": false,
      "inputs": [
        {
          "name": "_challengeSafetyHatchTime2",
          "type": "uint256"
        }
      ],
      "name": "setChallengeSafetyHatchTime2",
      "outputs": [],
      "payable": false,
      "stateMutability": "nonpayable",
      "type": "function"
    }
  ],
  "bytecode": "0x60806040523480156200001157600080fd5b50604051620013fc380380620013fc833981018060405260a08110156200003757600080fd5b8101908080519060200190929190805190602001909291908051906020019092919080516401000000008111156200006e57600080fd5b828101905060208101848111156200008557600080fd5b8151856001820283011164010000000082111715620000a357600080fd5b5050929190602001805190602001909291905050508484848484846000806101000a81548173ffffffffffffffffffffffffffffffffffffffff021916908373ffffffffffffffffffffffffffffffffffffffff16021790555083600160006101000a81548173ffffffffffffffffffffffffffffffffffffffff021916908373ffffffffffffffffffffffffffffffffffffffff16021790555081600490805190602001906200015692919062000242565b5082600260006101000a81548173ffffffffffffffffffffffffffffffffffffffff021916908373ffffffffffffffffffffffffffffffffffffffff16021790555082600360006101000a81548173ffffffffffffffffffffffffffffffffffffffff021916908373ffffffffffffffffffffffffffffffffffffffff1602179055508060058190555062278d006005540160068190555062278d00600654016007819055506000600860006101000a81548160ff0219169083151502179055506000600860016101000a81548160ff02191690831515021790555050505050505050505050620002f1565b828054600181600116156101000203166002900490600052602060002090601f016020900481019282601f106200028557805160ff1916838001178555620002b6565b82800160010185558215620002b6579182015b82811115620002b557825182559160200191906001019062000298565b5b509050620002c59190620002c9565b5090565b620002ee91905b80821115620002ea576000816000905550600101620002d0565b5090565b90565b6110fb80620003016000396000f3fe6080604052600436106100f1576000357c0100000000000000000000000000000000000000000000000000000000900463ffffffff16806307171d7f146101ae578063306a7ce0146101c55780634bb278f3146101f45780634e71d92d1461020b57806370a0823114610222578063770bd0e31461028757806378bbca82146102c25780637b8c8de11461035257806387730309146103b757806395623641146103e2578063bc3fde4e14610439578063bdcb75fb14610464578063c8e12f14146104bb578063ce606ee0146104f6578063d87a328a1461054d578063dfc39d7714610578578063e8e3ae69146105b3575b600554421115151561010257600080fd5b60003411151561011157600080fd5b34600960003373ffffffffffffffffffffffffffffffffffffffff1673ffffffffffffffffffffffffffffffffffffffff168152602001908152602001600020600082825401925050819055503373ffffffffffffffffffffffffffffffffffffffff167f88a5966d370b9919b20f3e2c13ff65706f196a4e32cc2c12bf57088f88525874346040518082815260200191505060405180910390a2005b3480156101ba57600080fd5b506101c36105e2565b005b3480156101d157600080fd5b506101da610775565b604051808215151515815260200191505060405180910390f35b34801561020057600080fd5b50610209610788565b005b34801561021757600080fd5b50610220610939565b005b34801561022e57600080fd5b506102716004803603602081101561024557600080fd5b81019080803573ffffffffffffffffffffffffffffffffffffffff169060200190929190505050610a99565b6040518082815260200191505060405180910390f35b34801561029357600080fd5b506102c0600480360360208110156102aa57600080fd5b8101908080359060200190929190505050610b01565b005b3480156102ce57600080fd5b506102d7610b66565b6040518080602001828103825283818151815260200191508051906020019080838360005b838110156103175780820151818401526020810190506102fc565b50505050905090810190601f1680156103445780820380516001836020036101000a031916815260200191505b509250505060405180910390f35b34801561035e57600080fd5b506103a16004803603602081101561037557600080fd5b81019080803573ffffffffffffffffffffffffffffffffffffffff169060200190929190505050610c04565b6040518082815260200191505060405180910390f35b3480156103c357600080fd5b506103cc610c1c565b6040518082815260200191505060405180910390f35b3480156103ee57600080fd5b506103f7610c22565b604051808273ffffffffffffffffffffffffffffffffffffffff1673ffffffffffffffffffffffffffffffffffffffff16815260200191505060405180910390f35b34801561044557600080fd5b5061044e610c48565b6040518082815260200191505060405180910390f35b34801561047057600080fd5b50610479610c4e565b604051808273ffffffffffffffffffffffffffffffffffffffff1673ffffffffffffffffffffffffffffffffffffffff16815260200191505060405180910390f35b3480156104c757600080fd5b506104f4600480360360208110156104de57600080fd5b8101908080359060200190929190505050610c74565b005b34801561050257600080fd5b5061050b610cd9565b604051808273ffffffffffffffffffffffffffffffffffffffff1673ffffffffffffffffffffffffffffffffffffffff16815260200191505060405180910390f35b34801561055957600080fd5b50610562610cfe565b6040518082815260200191505060405180910390f35b34801561058457600080fd5b506105b16004803603602081101561059b57600080fd5b8101908080359060200190929190505050610d04565b005b3480156105bf57600080fd5b506105c8610d69565b604051808215151515815260200191505060405180910390f35b600754421115156105f257600080fd5b6000809054906101000a900473ffffffffffffffffffffffffffffffffffffffff1673ffffffffffffffffffffffffffffffffffffffff163373ffffffffffffffffffffffffffffffffffffffff1614151561064d57600080fd5b60003073ffffffffffffffffffffffffffffffffffffffff163190506000809054906101000a900473ffffffffffffffffffffffffffffffffffffffff1673ffffffffffffffffffffffffffffffffffffffff166108fc3073ffffffffffffffffffffffffffffffffffffffff16319081150290604051600060405180830381858888f193505050501580156106e7573d6000803e3d6000fd5b506001600860026101000a81548160ff0219169083151502179055506000809054906101000a900473ffffffffffffffffffffffffffffffffffffffff1673ffffffffffffffffffffffffffffffffffffffff167f1ac1e39f5a410afcc9fd213aab1b92287e00cf00e216f3776f352ab328d124f9826040518082815260200191505060405180910390a250565b600860019054906101000a900460ff1681565b6005544211151561079857600080fd5b60065442111515156107a957600080fd5b600860009054906101000a900460ff161515156107c557600080fd5b60006107cf610d7c565b600860018294508391906101000a81548160ff021916908315150217905550505080151561093657600860019054906101000a900460ff161561091a5760003073ffffffffffffffffffffffffffffffffffffffff16319050600160009054906101000a900473ffffffffffffffffffffffffffffffffffffffff1673ffffffffffffffffffffffffffffffffffffffff166108fc3073ffffffffffffffffffffffffffffffffffffffff16319081150290604051600060405180830381858888f193505050501580156108a7573d6000803e3d6000fd5b50600160009054906101000a900473ffffffffffffffffffffffffffffffffffffffff1673ffffffffffffffffffffffffffffffffffffffff167f2a01595cddf097c90216094025db714da3f4e5bd8877b56ba86a24ecead8e543826040518082815260200191505060405180910390a2505b6001600860006101000a81548160ff0219169083151502179055505b50565b6005544211151561094957600080fd5b600860009054906101000a900460ff1680610965575060065442115b151561097057600080fd5b600860019054906101000a900460ff16158061098d575060065442115b151561099857600080fd5b60006109a333610a99565b1115156109af57600080fd5b60006109ba33610a99565b90503373ffffffffffffffffffffffffffffffffffffffff166108fc829081150290604051600060405180830381858888f19350505050158015610a02573d6000803e3d6000fd5b506000600960003373ffffffffffffffffffffffffffffffffffffffff1673ffffffffffffffffffffffffffffffffffffffff168152602001908152602001600020819055503373ffffffffffffffffffffffffffffffffffffffff167fd8138f8a3f377c5259ca548e70e4c2de94f129f5a11036a15b69513cba2b426a826040518082815260200191505060405180910390a250565b6000600860029054906101000a900460ff1615610ab95760009050610afc565b600960008373ffffffffffffffffffffffffffffffffffffffff1673ffffffffffffffffffffffffffffffffffffffff1681526020019081526020016000205490505b919050565b6000809054906101000a900473ffffffffffffffffffffffffffffffffffffffff1673ffffffffffffffffffffffffffffffffffffffff163373ffffffffffffffffffffffffffffffffffffffff16141515610b5c57600080fd5b8060058190555050565b60048054600181600116156101000203166002900480601f016020809104026020016040519081016040528092919081815260200182805460018160011615610100020316600290048015610bfc5780601f10610bd157610100808354040283529160200191610bfc565b820191906000526020600020905b815481529060010190602001808311610bdf57829003601f168201915b505050505081565b60096020528060005260406000206000915090505481565b60065481565b600260009054906101000a900473ffffffffffffffffffffffffffffffffffffffff1681565b60055481565b600160009054906101000a900473ffffffffffffffffffffffffffffffffffffffff1681565b6000809054906101000a900473ffffffffffffffffffffffffffffffffffffffff1673ffffffffffffffffffffffffffffffffffffffff163373ffffffffffffffffffffffffffffffffffffffff16141515610ccf57600080fd5b8060068190555050565b6000809054906101000a900473ffffffffffffffffffffffffffffffffffffffff1681565b60075481565b6000809054906101000a900473ffffffffffffffffffffffffffffffffffffffff1673ffffffffffffffffffffffffffffffffffffffff163373ffffffffffffffffffffffffffffffffffffffff16141515610d5f57600080fd5b8060078190555050565b600860009054906101000a900460ff1681565b600080600360009054906101000a900473ffffffffffffffffffffffffffffffffffffffff1673ffffffffffffffffffffffffffffffffffffffff16638d4e40836040518163ffffffff167c010000000000000000000000000000000000000000000000000000000002815260040160206040518083038186803b158015610e0357600080fd5b505afa158015610e17573d6000803e3d6000fd5b505050506040513d6020811015610e2d57600080fd5b8101908080519060200190929190505050156110c257600360009054906101000a900473ffffffffffffffffffffffffffffffffffffffff1673ffffffffffffffffffffffffffffffffffffffff166304be2f506040518163ffffffff167c010000000000000000000000000000000000000000000000000000000002815260040160206040518083038186803b158015610ec757600080fd5b505afa158015610edb573d6000803e3d6000fd5b505050506040513d6020811015610ef157600080fd5b810190808051906020019092919050505015610f145760006001915091506110cb565b6000600360009054906101000a900473ffffffffffffffffffffffffffffffffffffffff1673ffffffffffffffffffffffffffffffffffffffff16633c26482060006040518263ffffffff167c01000000000000000000000000000000000000000000000000000000000281526004018082815260200191505060206040518083038186803b158015610fa657600080fd5b505afa158015610fba573d6000803e3d6000fd5b505050506040513d6020811015610fd057600080fd5b810190808051906020019092919050505090506000600360009054906101000a900473ffffffffffffffffffffffffffffffffffffffff1673ffffffffffffffffffffffffffffffffffffffff16633c26482060016040518263ffffffff167c01000000000000000000000000000000000000000000000000000000000281526004018082815260200191505060206040518083038186803b15801561107557600080fd5b505afa158015611089573d6000803e3d6000fd5b505050506040513d602081101561109f57600080fd5b8101908080519060200190929190505050905081811160009350935050506110cb565b60006001915091505b909156fea165627a7a72305820bde76161e32ac0b0428ddfc8b16a35dc0144b1c109b5bdb589fd0dc4f71601090029",
  "source": "pragma solidity ^0.5.0;\n\nimport \"./CharityChallenge.sol\";\n\ncontract TestableCharityChallenge is CharityChallenge {\n    constructor(\n        address payable _contractOwner,\n        address payable _npoAddress,\n        address _marketAddress,\n        string memory _challengeName,\n        uint256 _challengeEndTime\n    ) CharityChallenge(\n        _contractOwner,\n        _npoAddress,\n        _marketAddress,\n        _challengeName,\n        _challengeEndTime\n    ) public {}\n\n    ///////////////////////////////////////////\n    // FUNCTIONS BELOW ARE USED FOR TESTING  //\n    ///////////////////////////////////////////\n\n    function setChallengeEndTime(uint256 _challengeEndTime) public {\n        require(msg.sender == contractOwner);\n        challengeEndTime = _challengeEndTime;\n    }\n\n    function setChallengeSafetyHatchTime1(uint256 _challengeSafetyHatchTime1) public {\n        require(msg.sender == contractOwner);\n        challengeSafetyHatchTime1 = _challengeSafetyHatchTime1;\n    }\n\n    function setChallengeSafetyHatchTime2(uint256 _challengeSafetyHatchTime2) public {\n        require(msg.sender == contractOwner);\n        challengeSafetyHatchTime2 = _challengeSafetyHatchTime2;\n    }\n}",
  "sourcePath": "/Users/tuyennguyen/Projects/charity-challenge/charity-challenge-contract/contracts/TestableCharityChallenge.sol",
  "compiler": {
    "name": "solc",
    "version": "0.5.0+commit.1d4f565a.Emscripten.clang"
  },
  "schemaVersion": "3.0.2",
  "updatedAt": "2019-02-13T08:27:25.914Z",
  "devdoc": {
    "methods": {}
  },
  "userdoc": {
    "methods": {
      "setChallengeEndTime(uint256)": {
        "notice": "////////////////////////////////////////"
      }
    }
  }
}